:020000040800F2
:1000000000500020813600087112000875120008A7
:10001000791200087D12000881120008000000001B
:100020000000000000000000000000008512000831
:1000300089120008000000008D12000891120008CB
:10004000C9360008C9360008C9360008C936000894
:10005000C9360008C9360008C9360008C936000884
:10006000C9360008C9360008C9360008A1120008C0
:10007000C9360008C9360008C9360008C936000864
:10008000C9360008C9360008C9360008C936000854
:1000900095120008C9360008C9360008C93600089C
:1000A000C9360008C9360008C9360008C936000834
:1000B000C9360008C9360008C9360008C936000824
:1000C000C9360008C9360008C9360008C936000814
:1000D000C9360008C9360008C9360008C936000804
:1000E000C9360008C9360008C936000800000000FB
:1000F0000000000000000000000000000000000000
:0C01000000000000000000005FF808F1A3
:10010C000348044B834202D0034B03B1184770479A
:10011C007C0100207C0100200000000005480649FD
:10012C000B1AD90F01EBA301491002D0034B03B1F9
:10013C00184770477C0100207C0100200000000063
:10014C0010B5064C237843B9FFF7DAFF044B13B113
:10015C000448AFF300800123237010BD7C01002004
:10016C0000000000CC36000808B5044B1BB1044954
:10017C000448AFF30080BDE80840CFE70000000062
:10018C0080010020CC36000870B50D4E0D4D761B4D
:10019C00B61006D00024013455F8043B9847A6420B
:1001AC00F9D1094E094D03F08BFA761BB61006D027
:1001BC000024013455F8043B9847A642F9D170BD90
:1001CC00303800083038000834380008303800085F
:1001DC00F0B4860746D0541E002A3CD0CAB203465F
:1001EC0002E014F1FF3436D303F8012B9D07F8D14C
:1001FC00032C29D9CDB245EA05250F2C45EA054536
:10020C0033D9A4F11006360903F1200707EB0617C2
:10021C0003F1100242E9045542E902551032BA4288
:10022C00F8D1721C14F00C0F03EB021204F00F0641
:10023C0013D0331F23F003030433134442F8045B3D
:10024C009342FBD106F003042CB1C9B21C4403F851
:10025C00011B9C42FBD1F0BC704734461346002C6A
:10026C00F3D1F8E714460346C2E71A462646E0E700
:10027C00224A23481146036810B523F0070343F0C4
:10028C00010303600368136843F4803313600B6845
:10029C009A03FCD54B68194A23F47C1343F4881356
:1002AC004B600B6843F080730B6013689B01FCD5AB
:1002BC005368124C23F0F0035360536823F4E0634B
:1002CC0043F4A0635360536823F460535360536842
:1002DC0023F0030343F002035360636803F00C0341
:1002EC00082BFAD1074802F0ADF9002002F0B0F962
:1002FC00636843F48003636010BD00BF00100240CC
:10030C0000200240006CDC0208B502F0C5F9FFF7D2
:10031C00AFFF00F013F800F007F900F0F9FA00F065
:10032C0009FC00F077FD00F0EFF8642002F074F99E
:10033C0000F0F2F8F9E700BF704700BF434B2DE91E
:10034C00F0419A694FF4005E02254FF4006C4FF4B3
:10035C0080610126002442F004029A619A698AB0F5
:10036C0002F004020492049A9A69394F42F008028E
:10037C009A619A69374802F008020392039A9A69C3
:10038C00DFF8E08042F010029A619A6902F01002E4
:10039C000292029A9A6942F020029A619B692E4A53
:1003AC0003F020030193019BC0F814E07D61796197
:1003BC00C7F814C005A90592CDE90665CDE9084436
:1003CC0000F09EFF40F2022305A938460593CDE9C3
:1003DC000665CDE9084400F093FF42F2200305A91D
:1003EC0040460593CDE90665CDE9084400F088FF49
:1003FC001A4B05A938460593CDE90665CDE90844A5
:10040C0000F07EFF44F2400305A940460593CDE978
:10041C000665CDE9084400F073FF114B05A9384679
:10042C000593CDE90665CDE9084400F069FF48F273
:10043C008003404605A9CDE90665CDE9084405933E
:10044C0000F05EFF0AB0BDE8F08100BF0010024072
:10045C00000C0140001001402000200404000404A2
:10046C0008000804000801404FF40062014B5A6177
:10047C00704700BF000C01404FF40062014B1A6141
:10048C00704700BF000C01408022014B5A6170473D
:10049C00000801408022014B1A617047000801409E
:1004AC004FF48062014B5A61704700BF000C014051
:1004BC004FF48062014B1A61704700BF000C014081
:1004CC004022014B5A617047000801404022014B09
:1004DC001A617047000801400222014B5A617047B3
:1004EC00000C01400222014B1A617047000C0140C4
:1004FC002022014B5A617047000801402022014B19
:10050C001A617047000801404FF40052014B5A61C8
:10051C00704700BF001001404FF40052014B1A61AC
:10052C00704700BF0010014010B5642002F074F851
:10053C004FF40063124C3C20236102F06DF84FF431
:10054C0080633C20236102F067F802233C20236186
:10055C0002F062F88023A4F580643C20236102F051
:10056C005BF840233C20236102F056F820233C200A
:10057C00236102F051F84FF40052024B1A6110BD86
:10058C00000C01400010014088B110B5441EE4B2CB
:10059C00FFF7BAFF013C322002F03EF8E4B2FFF75D
:1005AC00BBFF322002F038F8FF2CF1D110BD7047A0
:1005BC000B68072B00D0704770B503780446AE2B40
:1005CC0002D14378AB2B04D0BDE870400320FFF779
:1005DC00DBBF0D460621867900F006FC864204D06E
:1005EC00BDE870400420FFF7CFBFFFF78DFFA37865
:1005FC00012B02D0022B22D070BDE378B02B00F07F
:10060C009F8079D8072B00F09F80102B07D1207981
:10061C00A0F1EE00B0FA80F0400900F0D5F8FF230D
:10062C00237163712B682046013BD9B200F0DCFBCF
:10063C00A07129882046BDE8704000F0FDBDE3782C
:10064C00C12B71D8AF2B64D9B03B112BD4D801A2DC
:10065C0052F823F0F7060008EB0600080506000820
:10066C000506000805060008050600080506000832
:10067C000506000805060008050600080506000822
:10068C000506000805060008050600080506000812
:10069C0005060008DF060008A906000800F088FB24
:1006AC00C0F30726C3B2E1214AF6AE32304DA97031
:1006BC00E1782846E9702A8006216B712E7100F0D2
:1006CC0093FB0346AB712846BDE87040072100F050
:1006DC00B3BD00F051FBC0F30726C3B2E3E700F053
:1006EC000FF930B100231226DDE700F0DBF800280B
:1006FC00F8D100230D26D6E7B12B2ED0DD2B8ED1D1
:10070C002079A0F1D100B0FA80F0400900F086F811
:10071C0085E7072B25D0102B7FF46EAF00F076F811
:10072C0018B30023EE26BEE7DD2B7FF465AF00F097
:10073C008BF80028034616BFD126D0260023B2E73B
:10074C00207900F089F86AE72079A0F1EE00B0FA80
:10075C0080F0400900F00EF861E7207900F0AAF86B
:10076C005DE700F029F80028DBD10023ED269AE79D
:10077C009801002010B568B14FF08042136A43F025
:10078C0001031362FFF7A8FE0A4A137843F0020331
:10079C00137010BD4FF080420446136A23F001031E
:1007AC001362FFF79FFE034B1A7864F341021A7031
:1007BC0010BD00BFA0010020024B1878C0F3400010
:1007CC00704700BFA001002010B568B14FF0804207
:1007DC00136A43F010031362FFF78AFE0A4A137878
:1007EC0043F00803137010BD4FF080420446136AA7
:1007FC0023F010031362FFF781FE034B1A7864F3A6
:10080C00C3021A7010BD00BFA0010020024B187863
:10081C00C0F3C000704700BFA0010020102138B108
:10082C00074B084A1961137843F0010313707047A2
:10083C00034A044B51611A7860F300021A70704736
:10084C0000080140A0010020024B187800F00100C4
:10085C00704700BFA00100200D2808B502D0122857
:10086C000ED008BD4FF400720C4B1A61FFF720FE3E
:10087C00FFF7FAFD0A4B1A786FF382021A7008BD63
:10088C004FF40072054B5A61FFF7F6FDFFF708FEB7
:10089C00034A137843F00403137008BD000C0140A5
:1008AC00A0010020024B1878C0F38000704700BFF5
:1008BC00A00100200D2808B502D012280ED008BDCA
:1008CC004FF480720C4B1A61FFF700FEFFF7DCFD52
:1008DC000A4B1A786FF304121A7008BD4FF4807229
:1008EC00054B5A61FFF7D6FDFFF7EAFD034A137873
:1008FC0043F01003137008BD000C0140A001002050
:10090C00024B1878C0F30010704700BFA001002004
:10091C002DE9F04F002495B04FF080452146202260
:10092C000CA8CDE90244CDE904440694FFF750FC31
:10093C0040F23D42CDE90744CDE90944744E0B9495
:10094C00F36902A943F00103F361F369284603F04C
:10095C0001030093CDE90424009BADF808400394F7
:10096C0002F06CFD4FF4167C4FF0600E2B680CAA55
:10097C0023F080032B60AB68284623F4804323F0DC
:10098C000703AB60AB69012143F00803AB61AB69B2
:10099C00022743F40063AB61CDF83CC0CDF830E0E6
:1009AC00CDE90D44109402F08BFD0CAA28461021C1
:1009BC0002F086FD40F2033E0922AB694FF00108BC
:1009CC0023F00403AB61AB69DFF854A123F480631B
:1009DC00AB616B6807A923F070036B60AB68504682
:1009EC0023F08003AB60B369DFF8389143F0040364
:1009FC00B361B369CDE907E203F004030193019BF2
:100A0C000A94099700F07CFC4FF40072E9684FF0EF
:100A1C00100B41EA0801E96029683E4B41EA0801E4
:100A2C002960B0690CA940F00800B061B06900F011
:100A3C00080002900298B06940F00400B061B669F9
:100A4C00484606F004060796079EC9F814204FF492
:100A5C008072314EC9F81420CAF814B0CDE90C38A4
:100A6C00CDE90E74109400F04BFC0CA948460C9682
:100A7C00CDE90D87CDE90F4400F042FC41F21003A3
:100A8C000CA950460C93CDE90D87CDE90F4400F02D
:100A9C0037FC4FF40073214E34703278CAF814B01E
:100AAC0064F300023270C9F81030FFF701FDFFF754
:100ABC00DBFC4FF48073327864F382023270C9F835
:100ACC001030FFF703FDFFF7DFFC337864F30413FA
:100ADC0033702B6A23F001032B62FFF703FD33788D
:100AEC0064F3410333702B6A23F010032B62FFF77E
:100AFC0005FD337864F3C3033370FFF7D9FCFFF7BC
:100B0C00B3FCFFF7E3FCFFF7BFFC15B0BDE8F08FBB
:100B1C00001002400200020401000104A0010020A8
:100B2C0000080140000C01400122014B1A70704773
:100B3C00A80100202DE9F04F4FF400610024844BF4
:100B4C008448854AC06883F80B43196051694FF497
:100B5C00807641F001015161516991B07F4B01F0F8
:100B6C000101039103991968DFF808C221F480414F
:100B7C0021F0100119601968794821F4405141F4B1
:100B8C0000511960196840F60C4741F020011960BA
:100B9C001968744D21F040011960196841F0800109
:100BAC001960196821F4407131431960196821F4F6
:100BBC00406141F480611960C3F808C0D86058687E
:100BCC000BA9000C000440F002005860D3F800C0E0
:100BDC0065484CF0020CC3F800C0D3F800C04CF0D0
:100BEC00010CC3F800C0CDE90444CDE90744CDE9BC
:100BFC000944CDE90E44009406940D94936943F492
:100C0C0000739361936903F400730193019B9369DF
:100C1C0043F00403936193690B9703F0040302936D
:100C2C00029B0C9400F06CFB04A92846CDE9044609
:100C3C0001F0E2FD694628464FF46027009401F06C
:100C4C00B9FD4FF480120223284606A9CDE906729D
:100C5C000A9608940993454E01F0E4FD4FF4407256
:100C6C0092FAA2F34FF40070B3FA83F320FA03F371
:100C7C0056F823103E4C21F01F0141F0020146F8BA
:100C8C0023104FF0007191FAA1FABAFA8AFA21FAFC
:100C9C000AFA54F82AE04FF0F87393FAA3F9B9FA68
:100CAC0089F993FAA3F84FF4C00B4FF0070CB8FA7C
:100CBC0088F806272BFA09F92BFA08F80CFA09F927
:100CCC002EEA090E07FA08F84EEA080E44F82AE054
:100CDC0092FAA2F2B2FA82F220FA02F256F822004A
:100CEC0020F4787040F0600046F8220091FAA1F2EE
:100CFC00B2FA82F2D14054F8210093FAA3F6B6FA74
:100D0C0086F693FAA3F34FF4100EB3FA83F32A4644
:100D1C002EFA06F60CFA06F62EFA03FE07FA0EF772
:100D2C0020EA06033B4344F82130AB6843F001034F
:100D3C00AB60AB6843F00403AB6093685B07FCD417
:100D4C00936843F4A003936011B0BDE8F08F00BF2B
:100D5C0000E100E000ED00E000100240080002405D
:100D6C00A401002000240140000801402C24014073
:100D7C000C2401404C2401400A4A1378002BFCD06F
:100D8C00002040F6E443084910700A88074892B2E4
:100D9C0003FB02F3A0FB03201B1A00EB5300C0F370
:100DAC00CF207047A8010020A401002001011000F1
:100DBC000A4A1378002BFCD0002040F6E443084983
:100DCC0010704A88074892B203FB02F3A0FB032081
:100DDC001B1A00EB5300C0F3CF207047A801002072
:100DEC00A40100200101100079B10346FF204A1E26
:100DFC00D2B210B40132064C991813F8012B5040A2
:100E0C009942205CF9D110BC7047FF20704700BF9D
:100E1C00E436000808B500221749184801F054FDC3
:100E2C0070B91749154801F065FD88B91549134883
:100E3C0002F0BAFAA0B9114801F064FDB8B908BDC6
:100E4C00FFF77AFA0E490D4801F054FD0028EDD059
:100E5C00FFF772FA0B49094802F0A6FA0028EAD00B
:100E6C00FFF76AFA054801F04DFD0028E7D0BDE810
:100E7C000840FFF761BA00BF00000020D00300203B
:100E8C006C000020500000200E4B02689A4200D0EB
:100E9C007047002203F5DA3310B5DC6982B044F4F4
:100EAC000004DC61DB69114603F400030193142098
:100EBC00019B01F021FC142002B0BDE8104001F0B0
:100ECC0053BC00BF005C004000F50C71D0F8680208
:100EDC0001F030BD00EB4113D3F83C21D0F868028F
:100EEC0001F056BD00EB4113DA6BD0F8680201F04B
:100EFC008DBD00BFD0F8680201F028BE836810B524
:100F0C00022B044601D0FFF717FAD4F8680201212E
:100F1C0001F004FED4F86802BDE8104001F0D6BD23
:100F2C0010B50446D0F8680201F0FCFDA36923B1AA
:100F3C00024A136943F00603136110BD00ED00E093
:100F4C00D0F8680201F0F8BD38B50446002308213A
:100F5C0002221C481C4DC4F8C002C0E90051C0E973
:100F6C000633C0F868428260036200F04FFA30BB6F
:100F7C00002218231146D4F8C00200F05BFE58235F
:100F8C0000228021D4F8C00200F054FEC0230022BD
:100F9C008121D4F8C00200F04DFE4FF4887300227A
:100FAC000121D4F8C00200F045FE4FF480730022FA
:100FBC008221D4F8C00200F03DFE002038BDFFF7BE
:100FCC00BBF9D5E794060020005C004008B5D0F8CA
:100FDC00C00200F09BFA032896BF024B0220185C5B
:100FEC0008BD00BFE437000810B51446D0F8C002A5
:100FFC001A46234600F0B6FA032896BF014B02208E
:10100C00185C10BDE437000808B5D0F8C00200F039
:10101C00DDFA032896BF024B0220185C08BD00BF06
:10102C00E437000808B5D0F8C00200F08DFD0328A5
:10103C0096BF024B0220185C08BD00BFE4370008C5
:10104C0008B5D0F8C00200F0BBFD032896BF024BD8
:10105C000220185C08BD00BFE43700080A06D0F86F
:10106C00C03204D403EB411191F82A01704701F00E
:10107C007F0103EB411191F82A00704708B5D0F8B5
:10108C00C00200F05BFA032896BF024B0220185CEA
:10109C0008BD00BFE437000808B5D0F8C00200F066
:1010AC00E3FA032896BF024B0220185C08BD00BF70
:1010BC00E437000808B5D0F8C00200F0B5FA0328F0
:1010CC0096BF024B0220185C08BD00BFE437000835
:1010DC00D0F8C00200F0C0BA00487047AC01002044
:1010EC00704700BF704700BF122301480B80704748
:1010FC001C000020042301480B80704730000020A6
:10110C000023F0B41F4652004E1CB0F1204F4FEAA2
:10111C00107404F130052ABF3734CD54CC54F75435
:10112C0002339A424FEA0010EFD1F0BC704700BF77
:10113C001A220B480B4B00681B680A80C01801D19F
:10114C000948704710B5094B08221C680849FFF77D
:10115C00D7FF204604220749FFF7D2FF024810BDF3
:10116C00E8F7FF1FF0F7FF1F34000020ECF7FF1F1C
:10117C00360000204600002010B5044C0A460448F6
:10118C00214601F057FF204610BD00BF000900208A
:10119C00E837000810B5044C0A460448214601F013
:1011AC0049FF204610BD00BF00090020FC37000895
:1011BC0010B5044C0A460448214601F03BFF20467A
:1011CC0010BD00BF000900201438000810B5044CF5
:1011DC000A460448214601F02DFF204610BD00BFF1
:1011EC0000090020203800080020704700207047BC
:1011FC0038B50446054DFFF7DBF92146284602F0C9
:10120C00E3F8284602F000F9002038BDD003002096
:10121C0010B5064C00222046054902F0CDF82046B8
:10122C00044902F0D1F8002010BD00BFD00300200B
:10123C00E80E0020000B002010B5094CD4F8B83291
:10124C00D3F814320BB1012010BD0A4601462046DA
:10125C0002F0B2F82046BDE8104002F0BBB800BF67
:10126C00D0030020704700BFFEE700BFFEE700BFC1
:10127C00FEE700BFFEE700BF704700BF704700BF2E
:10128C00704700BF01F01ABA014800F003BA00BF62
:10129C009406002008B5084B1A68910706D4064B33
:1012AC001A68120744BF08225A6008BD01225A600E
:1012BC00FFF73AFCF3E700BF000002400E4B82B090
:1012CC009A690E4942F001029A619A6902F0010290
:1012DC000092009ADA6942F08052DA61DB6903F01D
:1012EC0080530193019B4B6823F0E06343F08063D0
:1012FC004B6002B0704700BF00100240000001407C
:10130C002DE9F04F0C68C4F30F2494FAA4F3B3FA4C
:10131C0083F334FA03F276D04FF0010B4FF00F0C3D
:10132C004FF0030E4FF004095EE040F201129A40B8
:10133C00160E92FAA2FABAFA8AFA92FAA2F8B8FA45
:10134C0088F885594F684FEA8A0A0CFA0AFA4FEA6C
:10135C00880807FA08F825EA0A0545EA08058551C0
:10136C00D0F80C80150A95FAA5FABAFA8AFA0F6920
:10137C0028EA05084D6807FA0AFA25F0080548EA34
:10138C000A08012DC0F80C802AD192FAA2FABAFAF6
:10139C008AFA92FAA2F8B8FA88F885598F684FEA57
:1013AC008A0A0EFA0AFA4FEA880825EA0A0507FAA9
:1013BC0008F845EA0805855192FAA2F8B8FA88F8B7
:1013CC0092FAA2F2B2FA82F2CF684FEA880892003F
:1013DC0009FA08F825EA080507FA02F215438551BF
:1013EC00013334FA03F20ED00BFA03F22242F7D097
:1013FC00072B9AD94FF00115A3F1080205FA02F256
:10140C0042F0806294E70020BDE8F08F2DE9F041B6
:10141C0086B0002874D090F82932054603F0FF02FC
:10142C00002B68D003232E4685F82932286800F05B
:10143C002BFC56F810CB6C4637460FCF0FC43B68CD
:10144C002F1D2360604697E80E0000F00BFC04464D
:10145C0038B101240223204685F8293206B0BDE8B4
:10146C00F0810146286800F019FC686850B32346E7
:10147C004FF00108214605EB431203F1010E82F8EF
:10148C002830D3865FFA8EF38342C2E90E1182F8BC
:10149C00298082F82B101164EDD3002205EB441344
:1014AC0004F1010C04F10A0183F828415FFA8CF471
:1014BC0049018442C3E94E2283F8292183F82B2168
:1014CC006A50EBD30FCE6C460FC43668286897E889
:1014DC000E00266000F0E4FB04460028B9D101237D
:1014EC0085F82400286885F8293201F069F820462F
:1014FC0006B0BDE8F08180F82822FFF7C5FC91E723
:10150C000124204606B0BDE8F08100BF90F82832D7
:10151C00012B10D0012110B5044680F82812FFF7DA
:10152C00E1FD206801F04AF8206800F0A3FB0020E0
:10153C0084F8280210BD0220704700BF90F82822C2
:10154C00012A0DD0012210B5044680F8241080F831
:10155C002822006801F02CF8002084F8280210BD25
:10156C0002207047F8B50646080621D4002401F085
:10157C000705680100F594713044314480F8294125
:10158C0048780D700A61CB7000B1CD81022B04BF7D
:10159C0000230B7196F82832012B14D001233068EC
:1015AC0086F8283200F096FB002086F82802F8BD59
:1015BC00012701F007056901701801F128043119A0
:1015CC0080F82970DCE70220F8BD00BF0B0610B5CF
:1015DC00044618D4002001F007035A0102F5947157
:1015EC002144224482F829010B7094F82832012BF3
:1015FC0018D00123206884F8283200F00BFD00205D
:10160C0084F8280210BD012001F007035A0102F1F1
:10161C0028012144224482F829000B7094F82832C6
:10162C00012BE6D1022010BD70B5002601F0070594
:10163C0000EB4514C4F83C210068C4F8403184F830
:10164C00285104F59471C4F8446184F8296100F0C0
:10165C00D7FD304670BD00BF01F0070100EB411013
:10166C00D0F84401704700BFF8B501F0070500EB56
:10167C0045140026012721460068C4E90F2384F88D
:10168C002850283184F82970666400F0B9FD304682
:10169C00F8BD00BF2DE9F04F044683B0006800F0A0
:1016AC0091FF010443D4206800F08CFF460567D4F9
:1016BC00206800F087FF10F4804F206807D0B0F846
:1016CC00443023F480431B041B0CA0F8443000F07E
:1016DC0079FF10F4005F206807D0B0F8443023F491
:1016EC0000531B041B0CA0F8443000F06BFFC50426
:1016FC0000F18281206800F065FF000500F1548143
:10170C00206800F05FFF820500F14181206800F045
:10171C0059FFC30508D52268B2F8443023F480730E
:10172C001B041B0CA2F8443003B0BDE8F08F2268F8
:10173C00B2F8443010461A04B6D5DFF80094DFF83E
:10174C0000B4DFF800A4B0F84450A9B215F00F05AE
:10175C0040F0828011F0100100F0EA80018811F451
:10176C0000658BB240F066811B0426D40246B0F8AB
:10177C0044301F04E7D4104600F024FF460597D5EB
:10178C0022682046B2F8443023F480631B041B0CFF
:10179C00A2F84430FFF7B2FB94F82832012B87D023
:1017AC00002501232946206884F8283284F8245027
:1017BC0000F0FEFE84F828527AE740F68F73028818
:1017CC00134043F080030380B0F8503094F8282184
:1017DC009BB203EBC20300EB4303B3F80C34C3F32B
:1017EC000903C4F8443193B1D4F83C1179B1B4F87D
:1017FC002E2100F0EDFED4F83C31D4F844212046E3
:10180C0013442946C4F83C31FFF764FB2068B0F858
:10181C005030D4F8381102469BB200F20C45002926
:10182C0040F06381E95A21F4F8410904090CE952AA
:10183C00E95A89B241F40041E952038823F4804308
:10184C0023F070031B041B0C83F4405343F400433C
:10185C0043F0800303808AE730F825301FFA83F8C1
:10186C001B042AD418F0800F80D030F8253004EBFC
:10187C0045119BB203EA090343F4004320F82530D9
:10188C00B0F8503091F828209BB2023303EBC2031E
:10189C0000EB4300B0F80004CA6BC0F309000B6CFA
:1018AC0002444864CA63204691F82810002B6AD180
:1018BC00FFF718FB2068024659E740F68F7330F8A3
:1018CC00252004EB4517134043F0800320F8253006
:1018DC0097F834316E01002B40F0CF80B0F85030C7
:1018EC0097F828219BB2063303EBC20300EB4303AA
:1018FC00B3F80034C3F30903002B40F00081A119A5
:10190C00D1F84401D1E94F2718441A44C1F84401D5
:10191C00C1F83C2127B1D1F83801834280F0F8801E
:10192C002644204696F82811FFF7D4FA206899E748
:10193C0003889BB203EA090343F400430380B0F825
:10194C00503094F828209BB203EBC20300EB430009
:10195C00B0F80434E26BC3F309031A446364204601
:10196C00E263FFF7BFFA94F8243073B1236C63B9C8
:10197C0094F82420206842F08002A0F84C20024603
:10198C0084F82430F3E6FFF76FFE2068EEE6226859
:10199C002046B2F8443023F400731B041B0CA2F84D
:1019AC004430FFF7A7FAB1E62068B0F840309BB29C
:1019BC0043F00803A0F84030B0F8443023F400633F
:1019CC001B041B0CA0F84430B0F840309BB243F021
:1019DC000403A0F8403000F0F5FDC10408D52268DE
:1019EC00B2F8443023F480531B041B0CA2F844308F
:1019FC002046FFF795FA83E622682046B2F840307D
:101A0C0023F004031B041B0CA2F84030B2F8403046
:101A1C0023F008031B041B0CA2F84030FFF790FACC
:101A2C002068B0F8443023F480531B041B0CA0F83E
:101A3C00443060E6B0F8503094F828219BB203EBA8
:101A4C00C20300EB4303B3F80C34B4F82E21C3F3F8
:101A5C000903C4F8443104F50C7100F0B9FD40F6EB
:101A6C008F732268204611880B4043F0800313804B
:101A7C00FFF72AFA2068024679E697F8282130F811
:101A8C002230910013F4804FB0F850309BB214D137
:101A9C00063303EBC20300EB4303B3F80034C3F388
:101AAC000903002B46D1425A92B202EA0A0242F4CE
:101ABC00004242F0C002425221E7023303EBC20360
:101ACC0000EB4303B3F80034C3F30903002BEAD053
:101ADC00B7F830210193D7F83C1100F079FD97F855
:101AEC0028112068019B8900DDE73E2918D84E0893
:101AFC00CF0748BF0136B602B6B2EE529DE6B7F834
:101B0C002E21D7F83C11019300F062FD019BF6E603
:101B1C003B46204691F82811FFF786FD2068A1E688
:101B2C004E09C90608BF06F1FF364BEA8626B6B247
:101B3C00EE5282E6B7F832210193CCE70F8FFFFF0C
:101B4C000080FFFF8F8FFFFF38B5436801F007055A
:101B5C009D422CD80B06044618D40020490163186A
:101B6C0083F82901012301F59472A1180D708B7073
:101B7C0094F828229A4218D0206884F8283200F071
:101B8C0097FCB5B1002084F8280238BD01226B0106
:101B9C0003F12801034483F82920012301440D702B
:101BAC008B7094F828229A42E6D1022038BD01208D
:101BBC0038BD206804F50C7100F008FDE2E700BFA9
:101BCC0038B5436801F00F029A4230D80B06044630
:101BDC001AD40020002501F007035A0102F5947174
:101BEC002144224482F829010B708D7094F828321C
:101BFC00012B1AD00123206884F8283200F080FCD5
:101C0C0084F82852284638BD0120002501F007032E
:101C1C005A0102F128012144224482F829000B7058
:101C2C008D7094F82832012BE4D1022038BD0120AC
:101C3C0038BD00BF11F0800F09D001F0070100EB97
:101C4C00411028304AB90273C3800020704700EB62
:101C5C00411000F59470002AF5D0012283600273C4
:101C6C000020704784B001A880E80E0004B000206A
:101C7C00704700BF0246B0F8403000209BB243F4DE
:101C8C003F43A2F84030704744F2FF020346B0F8DD
:101C9C00401000200A40A3F84020704700207047F5
:101CAC0084B070B4044601250020A4F84050A4F878
:101CBC004000A4F84400A4F85000B4F8405004AE1E
:101CCC00ADB245F43F4586E80E00A4F8405070BC18
:101CDC0004B07047034670B40D78C87833F82520EB
:101CEC0022F4EC4222F070021204120C032800F2CF
:101CFC008A81DFE800F05450040242F4C0620020F4
:101D0C0048F28004224323F825200E78BF4D33F887
:101D1C00262092B22A403243224323F826200A7B03
:101D2C00002A40F089804A78002A3BD00A78CC8877
:101D3C00B3F8506003EB0212640802F58062640091
:101D4C00B6B294530C7833F8246003EB8402760615
:101D5C000CD533F8242092B2154045F4004545F0DB
:101D6C00C00523F824500A7803EB8202CB78012BB0
:101D7C00138823F4E04323F040034FEA03434FEA74
:101D8C00134352D070BC83F0200343F4004343F060
:101D9C00800313807047002042F48062B0E742F465
:101DAC000072ADE70A78CC88B3F8505003EB0212FE
:101DBC00640802F581626400ADB254530A78B3F83A
:101DCC0050400D6903EB021202F20C42A4B2002D3A
:101DDC0000F000813E2D00F20B816E08ED0748BF2C
:101DEC000136B602B6B216530C7833F8245003EB16
:101DFC0084026D0410D533F8242022F4E04222F042
:101E0C0070021204120C42F4404242F0800223F899
:101E1C0024200A7803EB8202138823F4804323F0F6
:101E2C0070031B041B0C83F4405343F4004343F036
:101E3C008003138070BC70470C7833F8242092B266
:101E4C002A4042F4014242F0800223F824200A780E
:101E5C000C89B3F8506003EB0212640802F580623F
:101E6C006400B6B294530A784C89B3F8506003EB13
:101E7C000212640802F58162B6B2640094534A7887
:101E8C000E78002A4ED133F8262003EB8604520438
:101E9C000CD533F8262092B2154045F4404545F058
:101EAC00800523F826500C7803EB84042288550611
:101EBC000ED5228822F4E04222F070021204120C99
:101ECC0042F4004242F0C00222800C7803EB8404FE
:101EDC0048F28005228822F4E04222F070021204BB
:101EEC00120C42F4004242F0C00222800C7833F80B
:101EFC00242022F4804222F070021204120C82F48C
:101F0C0040522A4323F82420097833F8212022F464
:101F1C00E04222F040021204120C2A4323F8212042
:101F2C0070BC704733F8262003EB860452040CD5A2
:101F3C0033F8262092B2154045F4404545F0800513
:101F4C0023F826500C7803EB8404228852060ED515
:101F5C00228822F4E04222F070021204120C42F4A5
:101F6C00004242F0C00222800C7803EB84042288E9
:101F7C0022F4E04222F070021204120C42F44042AD
:101F8C0042F080022280CA780C78012A33F824208F
:101F9C0022F4E04222F040024FEA02424FEA12429F
:101FAC0018BF82F0200242F4004242F0800223F873
:101FBC002420097870BC33F8212022F4804222F0CE
:101FCC0070021204120C42F4004242F0800223F818
:101FDC0021207047155B25F4F8452D042D0C155365
:101FEC00155B6FEA45456FEA5545ADB21553FBE6F7
:101FFC006E09ED06064D08BF06F1FF3645EA86254B
:10200C00ADB21553F0E601207AE600BF8F8FFFFFCB
:10201C000080FFFF0B7B10B4D3B94B780C78002BEE
:10202C0000F0BE8030F8243000EB84025B0600F137
:10203C00D480138823F4E04323F040031B041B0CCF
:10204C0043F4004343F08003002010BC138070471E
:10205C004B780C78002B51D130F8243000EB8402F3
:10206C005B0410D530F8243023F4E04323F07003E4
:10207C001B041B0C43F4404343F0800320F8243032
:10208C000A7800EB820213885C060ED5138823F4C1
:10209C00E04323F070031B041B0C43F4004343F098
:1020AC00C00313800A7800EB820248F28004138884
:1020BC0023F4E04323F070031B041B0C43F4004394
:1020CC0043F0C00313800A7830F8223023F48043A5
:1020DC0023F070031B041B0C234320F822300A78D6
:1020EC0030F8223023F4E04323F040031B041B0C94
:1020FC00234320F8223010BC0020704730F82430E5
:10210C0000EB84025B0410D530F8243023F4E04358
:10211C0023F070031B041B0C43F4404343F0800377
:10212C0020F824300A7800EB820213885B060ED567
:10213C00138823F4E04323F070031B041B0C43F4BB
:10214C00004343F0C00313800A7800EB820248F28C
:10215C008004138823F4E04323F070031B041B0C4E
:10216C0043F4404343F0800313800A7830F8223064
:10217C0023F4E04323F040031B041B0C234320F8FF
:10218C0022300A7830F8223023F4804323F0700395
:10219C001B041B0C234320F8223010BC002070477A
:1021AC0030F8243000EB84025B0410D530F8243076
:1021BC0023F4E04323F070031B041B0C43F4404353
:1021CC0043F0800320F824300A7800EB8202138855
:1021DC0023F4804323F0700330E730F8243023F4E9
:1021EC00E04323F070031B041B0C43F4004343F047
:1021FC00C00320F824300A7800EB820219E700BFF4
:10220C004A78F0B4012A64D08B690C69A34292BF5E
:10221C0000251D1B23460C7B8D6144BBB0F8502060
:10222C000C7892B200F20C452A442401002B00F0E9
:10223C00C0803E2B00F2F4805D08DE0748BF0135FC
:10224C00AD02ADB2A5520A78F0BC30F8223023F4BE
:10225C00804323F070031B041B0C83F4405343F4A2
:10226C00004343F0800320F8223000207047002AFE
:10227C00E9D1B0F850200C7892B200F204452A440F
:10228C002401002B40F0D780A55A25F4F8452D04E5
:10229C002D0CA552A55A6FEA45456FEA5545ADB2CE
:1022AC00A5524A78002A40F09280B0F850200C7861
:1022BC0093B200F20C421A442401A35A23F4F843BB
:1022CC001B041B0CA352A35A9BB243F40043A3520E
:1022DC00B9E78A690B699A4292BF0024D41A1A464C
:1022EC000B7B8C61002B33D00B7830F82340B0F88B
:1022FC005050670679D5ADB200F20C442C441B014A
:10230C0095B2E5524C8992B2013200F5806303EB31
:10231C00440352084C6918BF03EB820205D034F811
:10232C00025B23F8045B9A42F9D14B78002B65D100
:10233C000A7830F8223023F4E04323F070031B04B6
:10234C001B0C43F4004343F0C00320F822301CE084
:10235C00CB8896B200F58064013604EB43044B69DC
:10236C00760892B218BF03EB460605D033F8025B31
:10237C009E4224F8045BF9D1B0F850300C789DB231
:10238C0000F204432B442401E2520A78F0BC30F8EA
:10239C00223023F4E04323F040031B041B0C83F096
:1023AC00300343F4004343F0800320F82230002034
:1023BC007047A35A23F4F8431B041B0CA352A35AD3
:1023CC006FEA43436FEA53439BB2A3523BE7012AA4
:1023DC007FF439AFB0F850200C7892B202F20C4274
:1023EC009BB202EB041283522DE7ADB200F204440F
:1023FC002C441B0195B2E5520C8984E7012BC4D106
:10240C000A7830F8223023F4E04323F070031B04E5
:10241C001B0C43F4404343F0800320F82230B4E714
:10242C005D09DB06214B08BF05F1FF3543EA852327
:10243C009BB2A35207E73E2B19D85D082E4613F02A
:10244C00010718BF6E1CB602B6B2A6524A78002A13
:10245C00BDD1B0F850300A789CB200F20C43234442
:10246C00120107B10135AD02ADB29D52EBE65D092B
:10247C00AC460E4E13F01F0708BF05F1FF3C46EAB1
:10248C008C26B6B2A6524A78002AA0D1B0F85030A9
:10249C000C789AB200F20C431344240107B9013DA5
:1024AC00024A42EA8525ADB21D53CCE60080FFFFFF
:1024BC004B780A788BB130F8223023F4E04323F0C8
:1024CC0040031B041B0C83F0100343F4004343F044
:1024DC00800320F822300020704730F8223023F49B
:1024EC00804323F070031B041B0C83F4805343F4D0
:1024FC00004343F0800320F822300020704700BFD7
:10250C000B7B43BB4B7843B30A7830F822305B0625
:10251C000DD530F8223023F4E04323F070031B0474
:10252C001B0C43F4004343F0C00320F82230CB785B
:10253C00012B10D00A7830F8223023F4E04323F03A
:10254C0040031B041B0C83F0200343F4004343F0B3
:10255C00800320F822300020704710B40C7830F83B
:10256C00243000EB84025B0410D530F8243023F4C3
:10257C00E04323F070031B041B0C43F4404343F073
:10258C00800320F824300A7800EB820213880020A4
:10259C0023F4804323F070031B041B0C83F440537F
:1025AC0043F4004343F0800310BC1380704700BF1A
:1025BC0011B98023A0F84C300020704700207047E0
:1025CC0000207047B0F8440080B27047002070477C
:1025DC0000EB42005FEA530CF0B400F5806713D0B7
:1025EC003D466446881C35F8042B013C92B24FEAF8
:1025FC00122600F8022C00F8016C00F10200F2D156
:10260C0001EB4C0107EB8C07DB0748BF3B88F0BCA8
:10261C0048BF0B70704700BF094B82B01B68421C4F
:10262C00019318BF0130019B054A30B11368DB03DD
:10263C0048BF00F1FF300028F8D102B0704700BF4E
:10264C0010E000E0014B1860704700BF68000020EC
:10265C0038B54FF47A730D4A054611780C4AB3FB22
:10266C00F1F31268B2FBF3F000F08CF808B90F2DFF
:10267C0001D9012038BD0446024629464FF0FF30EF
:10268C0000F03AF8034B20461D6038BD6000002076
:10269C006800002064000020074A08B51368032076
:1026AC0043F01003136000F015F80020FFF7D0FF83
:1026BC00FEF704FE002008BD00200240034A044B34
:1026CC0011681B780B441360704700BFD0120020B8
:1026DC00600000204FF6FF01064A0302D06803F4A5
:1026EC00E0630840034343F0BF6343F40033D3601B
:1026FC00704700BF00ED00E0194B30B4DB68C3F34A
:10270C000223C3F10705042D03F1040428BF04259B
:10271C00062C19D94FF0FF34033B9C4022EA0402EB
:10272C004FF0FF34AC4021EA04019940002841EA03
:10273C0002010CDB090100F16040C9B200F56140F7
:10274C0080F8001330BC704700221346E8E7054BB5
:10275C0000F00F000901C9B20344197630BC704770
:10276C0000ED00E0FCEC00E0002807DB012300F0AA
:10277C001F01034A8B40400942F82030704700BFCC
:10278C0000E100E00138B0F1807F0DD230B4F025CB
:10279C0000220721054B064C586084F82350104644
:1027AC0030BC9A60196070470120704710E000E05F
:1027BC0000ED00E00E4A0F4B10B494689B68234365
:1027CC0013F001030AD10968024651B14468184656
:1027DC0024F47023194310BC51607047012010BCC5
:1027EC007047436810BC23F470230846536070474D
:1027FC0000240140002801400246806810F00100CE
:10280C000ED1536810B44C6823F480732343536087
:10281C009368096823F400630B4310BC9360704702
:10282C00012070478268D3071BD430B44C68034630
:10283C00CCB9426822F4684242609A680D6822F46E
:10284C006022C86822F4817209692A4302430A4350
:10285C009A60DA6A002022F470022243DA6230BCF9
:10286C0070470120704740688A6820F46840204314
:10287C0010435860E1E700BF30B44FF41F054FF030
:10288C0000640E4B0E4A19680E4841F001011960A4
:10289C0059680A405A601A6822F0847222F4803215
:1028AC001A601A6822F480221A605A6822F4FE0216
:1028BC005A609D60846030BC704700BF00100240BD
:1028CC000000FFF800ED00E088B108B5D0F8B43294
:1028DC0013B10023C0F8B43209B1C0F8B01201230F
:1028EC00027080F89C32FEF72FFB002008BD0220FE
:1028FC00704700BF19B1C0F8B41200207047022015
:10290C00704700BF08B5FEF761FB002008BD00BF93
:10291C0008B5D0F8B4321BB11B68984700B908BD94
:10292C00022008BD08B5D0F8B4325B689847002087
:10293C0008BD00BF38B5044600F52A75284600F0DE
:10294C0059FB012094F8A812B4F8AE2201F01F0331
:10295C008342C4E9A50209D0022B13D063B12046EF
:10296C0001F08001FEF75EFB002038BD29462046B1
:10297C0000F074FA002038BD2946204600F0F4F827
:10298C00002038BD2946204600F09CFA002038BDB6
:10299C0038B5054669B91346D0F89422032A15D0E8
:1029AC00052A0C460ED1C5F89412FEF73BFB2046C7
:1029BC0038BDD0F8B4329B6933B190F89C22032A0D
:1029CC0002D19847002038BD022038BDD0E95812FA
:1029DC0091420CD9891A8A4288BF8AB2C0F8601118
:1029EC0098BF92B2194600F071FB002038BDD0F8A8
:1029FC00B4321B691BB190F89C22032A04D02846E0
:102A0C0000F06EFB002038BD9847F8E770B504461F
:102A1C0081B91346D0F89422022A1BD032F0040359
:102A2C0002D18021FEF7FEFA94F8A0320020012B8F
:102A3C000DD070BDD0F8B4325B6933B190F89C22E4
:102A4C00032A02D19847002070BD022070BD84F883
:102A5C00A00270BDD0E90826B24226D8C369B3FBE8
:102A6C00F6F506FB15355DB99E4209D8D0F89822CB
:102A7C00934205D22A4600F011FBC4F898521BE091
:102A8C00D4F8B432DB681BB194F89C22032A1AD018
:102A9C0080212046FEF7C6FA204600F02DFB94F864
:102AAC00A0320020012BC4D1D1E7921B0D4602624B
:102ABC00194692B200F0F2FA2B462A4629462046D5
:102ACC00FEF7F8FAB0E720469847E1E770B5002228
:102ADC0040260446012511463346FEF785FA334657
:102AEC00802120460022C4F85851C4F86461FEF7D6
:102AFC007BFA0021D4F8B832A561666284F89C5246
:102B0C00C4F894126160C4F8A41223B1D4F8B4329E
:102B1C0020465B689847002070BD00BF034600202C
:102B2C00197470470346042290F89C12002083F815
:102B3C009D1283F89C22704790F89C32042B04BFA2
:102B4C0090F89D3280F89C320020704790F89C22BF
:102B5C00032A01D00020704708B5D0F8B432DB69E5
:102B6C0003B19847002008BD30B50B780D4603F033
:102B7C006003202B044683B00DD0402B0BD09BB1AF
:102B8C0080212046FEF74EFA20460021FEF74AFA35
:102B9C00002003B030BDD4F8B432294620469B68DF
:102BAC009847002003B030BD4B78092BE8D801A220
:102BBC0052F823F01B2C0008472C00088D2B000822
:102BCC00632C00088D2B0008752C0008AF2C000816
:102BDC008D2B0008E52C0008E92B000889789E4D08
:102BEC0001292970CCD890F89C32022B00F00F816F
:102BFC00032B00F0FB808021FEF714FA0021204605
:102C0C00FEF710FA20462978FFF78CFEC0E790F803
:102C1C009C32013B022BB3D8CB88022BB0D10122C2
:102C2C00D0F8A432C2600BB10323C3600222204649
:102C3C0004F10C0100F024FAAAE790F89C32013B55
:102C4C00022B9DD84B88012BA2D10023C0F8A432B3
:102C5C0000F046FA9CE74B88012B99D1C0F8A432BE
:102C6C00204600F03DFA93E78B88002B88D1CB8867
:102C7C00002B85D14D887F2D82D890F89C32032B68
:102C8C003FF47EAFE9B280F89E12FEF7F7F92046CA
:102C9C0000F026FA002D00F0DB80022384F89C3231
:102CAC0076E700234A88ADF80630130A013B062B61
:102CBC003FF666AF01A151F823F000BF892D000843
:102CCC00712D00085F2D00088D2B00088D2B00083E
:102CDC00492D0008092D0008CA88012A7FF450AF3D
:102CEC0090F89C32022B7AD8002B3FF449AF00238A
:102CFC00014641F8083F00F0C3F949E7037C002B7B
:102D0C007FF43EAFD0F8B4320DF106001B6B984740
:102D1C0007234370BDF806205AB1EB88002B9FD0D7
:102D2C009A4228BF1A4601462046ADF8062000F00C
:102D3C00A7F9EB88002B7FF42BAF91E7037C002BDA
:102D4C007FF41EAFD0F8B4320DF106005B6B9847E0
:102D5C00E0E7D2B2052A3FF613AFDFE802F03A34CF
:102D6C002E282217037C002B5FD1D0F8B4320DF142
:102D7C0006009B6A984702234370CBE7D0F8B03229
:102D8C000DF106011B68007C9847C3E7D0F8B03200
:102D9C009B69002B3FF4F4AE207C0DF106019847A3
:102DAC00B8E7D0F8B0325B69002BF5D1E8E6D0F883
:102DBC00B0321B69002BEFD1E2E6D0F8B032DB6801
:102DCC00002BE9D1DCE6D0F8B0329B68002BE3D1C4
:102DDC00D6E6D0F8B0325B68002BDDD1D0E6032B01
:102DEC007FF4CEAE011D00F04BF9D1E631B3416852
:102DFC0001293FF435AFC9B2FFF794FD297820467D
:102E0C006160FFF785FD02287FF42AAFB8E6002940
:102E1C003FF426AF01210323416080F89C32FFF779
:102E2C0077FD02287FF41CAFAAE6D0F8B4320DF17E
:102E3C000600DB6A9847022343706BE7022341606C
:102E4C0080F89C32FFF76EFD204600F049F99FE6B2
:102E5C00012384F89C329BE6CC03002038B50B7818
:102E6C000D4603F06002402A04460AD05B0608D5E2
:102E7C008021FEF7D7F820460021FEF7D3F800207A
:102E8C0038BD94F89C32013B022B11D82B79012BC5
:102E9C000ED8D4F8B43229469B6820469847EB8864
:102EAC00002BECD10028EAD1204600F019F9E6E716
:102EBC0080212046FEF7B6F820460021FEF7B2F836
:102ECC00002038BD70B50B78044603F06003202B4E
:102EDC000CD0402B0AD083B180212046FEF7A2F8FB
:102EEC0020460021FEF79EF8002070BDD4F8B432C5
:102EFC0020469B689847002070BD4B788A88012B30
:102F0C00D5B23DD0032B2AD0002BE5D190F89C32C2
:102F1C00022B4ED0032BDFD105F00F0303EB830301
:102F2C00120600EB830353D4D3F85831002BD3D0C3
:102F3C0005F07F0303EB830600EB860606F5AA7605
:102F4C0033B129462046FEF789F800284BD00123DF
:102F5C00336031462046022200F092F8C4E790F824
:102F6C009C32022B1BD0032BB6D14B8823B96A069B
:102F7C0002D0CB88002B38D0204600F0B1F8B3E754
:102F8C0090F89C32022B0AD0032BA5D14B88002B36
:102F9C00AAD16E06F0D02946FEF752F8ECE76B0684
:102FAC009AD02946FEF73EF820468021FEF73AF8E3
:102FBC009AE7680690D1002311064CBF04F1140166
:102FCC0004F5AA71204602220B6000F059F88BE739
:102FDC009B69002B80D005F07F035E1C06EB8606F8
:102FEC0000EB8606ACE73060B3E72946FEF71AF82B
:102FFC00C2E700BF0B7803704B784370CA788B78AC
:10300C0003EB022343804A790B7903EB0223838081
:10301C00CA798B7903EB0223C380704710B5044641
:10302C008021FDF7FFFF2046BDE810400021FDF791
:10303C00F9BF00BF08B3037870B4FBB10446C0F10C
:10304C000106A31914F8015FDBB2002DF9D101338D
:10305C005B00032413800B704C7004785CB102236A
:10306C0000255A1CD2B2CC548D5410F8014F0233A7
:10307C00DBB2002CF5D170BC704770470223E8E737
:10308C0038B5134602250A46C0E907330021C0F8BB
:10309C009452FEF701F8002038BD00BF10B50C4665
:1030AC00134600212246FDF7F7FF002010BD00BF9C
:1030BC0038B5134603250A46C0E957330021C0F83A
:1030CC009452FDF7F7FF002038BD00BF10B50C4639
:1030DC00134600212246FDF7EDFF002010BD00BF76
:1030EC0008B504220023C0F8942219461A46FDF7AD
:1030FC00D3FF002008BD00BF08B505220023C0F88F
:10310C00942219461A46FDF7D5FF002008BD00BFD2
:10311C00D0F8BC3283B110B5D0F8B84294F80002A4
:10312C00FF2807D09B68214694F801229847FF237B
:10313C0084F80032002010BD002070470346432263
:10314C0001481A80704700BFA400002003464322A8
:10315C0001481A80704700BFE80000200346432254
:10316C0001481A80704700BF3801002003460A222C
:10317C0001481A80704700BF2C01002038B5044666
:10318C00D0F8B852FDF7A4FFD4F8B832C5F80C0249
:10319C004BB1D4F8BC32D5F80402DB6805F50371E9
:1031AC009847002038BD022038BD00BFF8B5D0F8D4
:1031BC00B832D3B101EB810700EB8707FA694AB14A
:1031CC00D0F8C04204EB4116B56BB2FBF5F405FB2D
:1031DC0014241CB10020C3F81402F8BD2346224667
:1031EC00FC61FDF759FF2046F8BD0220F8BD00BF79
:1031FC002DE9F04100270B7882B013F060060C46E5
:10320C000546D0F8B8828DF80570ADF8067013D06D
:10321C00202E17D1CE88F6B11B063FD5D0F8BC3284
:10322C00324641469B686078984741462846E2887A
:10323C003E46FFF725FF0AE04B780A2B1FD00B2BDD
:10324C0027D093B121462846FFF7E8FE02263046E8
:10325C0002B0BDE8F081D0F8BC32324648789B68A9
:10326C009847304602B0BDE8F08190F89C32032BB1
:10327C00E8D102220DF10601FFF702FFE7E790F813
:10328C009C32032BDED101220DF10501FFF7F8FE74
:10329C00DDE790F89C32032BD9D0D3E74B7832463C
:1032AC0088F80162414688F80032FFF701FF3E467C
:1032BC00CDE700BF38B5044600258121FDF7A4FEFB
:1032CC0001212046E562FDF79FFE20468221C4F8CD
:1032DC006C51FDF799FED4F8B83225644BB1D4F893
:1032EC00BC325B689847D4F8B802FDF7F9FEC4F815
:1032FC00B852002038BD00BF2DE9F041037C0446D4
:10330C000125002B3DD14FF4007302228121FDF7E2
:10331C006BFE29464FF4007302222046E562FDF74E
:10332C0063FEC4F86C510127082303228221204636
:10333C00FDF75AFE4FF407702764FDF7CDFE0546E6
:10334C00C4F8B80260B34FF00008D4F8BC321B6864
:10335C009847C5F81482C5F81882267C3946204651
:10336C00D5F8042236B146464023FDF7A3FE30467D
:10337C00BDE8F0814FF40073FDF79CFE3046BDE8CC
:10338C00F081402302228121FDF72EFE29464023A5
:10339C0002222046E562FDF727FEC4F86C51C2E715
:1033AC003E463046BDE8F08119B1C0F8BC12002091
:1033BC0070470220704700BFD0F8B8320020C3F825
:1033CC000812C3F810227047D0F8B8320020C3F8A6
:1033DC0004127047D0F8B8229AB138B5D2F814421A
:1033EC000CB1012038BD0125D2F81032C2F81452AC
:1033FC008121D2F8082203639BB2FDF74DFE2046D3
:10340C0038BD0220704700BFD0F8B82210B58AB181
:10341C00047CD2F8042234B1002440230121FDF7AE
:10342C0049FE204610BD4FF400730121FDF742FE0A
:10343C00204610BD0224204610BD00BF1F4A036861
:10344C00904225D0B0F1804F30B413D0A2F5943215
:10345C0090420FD002F5806290420BD08C680A88A3
:10346C000360C4628262436930BC43F00103436170
:10347C00002070474A6823F07003CD6813438C68B2
:10348C000A8823F440732B430360C4628262EAE728
:10349C004A6823F070031343CA6823F44073134340
:1034AC0003608A680B88C26283620B7C0363436986
:1034BC0043F0010343610020704700BF002C014022
:1034CC00B1F5807F034670B468D025D8012900F08F
:1034DC008680102944D1006A156920F0100018620A
:1034EC00196A5E6821F0200141EA051121F01001F2
:1034FC00D2E900059C6941EA05115D4D24F4E644CE
:10350C00AB4244EA002434D0D26800205E609C6157
:10351C009A6370BC19627047B1F5805F20D1006A64
:10352C00156920F480501862196A5E6821F4005104
:10353C0041EA053121F48051D2E90005DC6941EA08
:10354C0005314B4D24F4E644AB4244EA00240AD046
:10355C00D26800205E60DC611A6470BC196270472E
:10356C00012070BC7047906926F4804646EA8016AC
:10357C00EEE721F0800126F48066D2E9055041EA9D
:10358C00851146EA80069568D06921F0400126F441
:10359C00006641EA851146EAC006B5E7006A15697E
:1035AC0020F480701862196A5E6821F4007141EA97
:1035BC00052121F48071D2E90005DC6941EA05217D
:1035CC002B4D24F07304AB4244EA000426D0D2689D
:1035DC0000205E60DC61DA6370BC19627047006ABF
:1035EC00156920F001001862196A5E6821F0020169
:1035FC00294321F00101D2E900059C6929431C4DA6
:10360C0024F07304AB4244EA00041CD0D2680020BE
:10361C005E609C615A6370BC1962704721F4006152
:10362C0026F48056D2E9055041EA852146EA001677
:10363C009568D06921F4806126F4005641EA852111
:10364C0046EA4016C3E721F0080126F48076D2E959
:10365C00055041EA850106439568D06921F00401C3
:10366C0026F4007641EA850146EA4006CEE700BF23
:10367C00002C0140002103E00B4B5B5843500431FC
:10368C000A480B4B42189A42F6D30A4A02E000232E
:10369C0042F8043B084B9A42F9D3FFF7EDF8FCF7DC
:1036AC0073FDFCF731FE704738380008000000202D
:1036BC007C0100207C010020D4120020FEE70000D9
:1036CC00F8B500BFF8BC08BC9E467047F8B500BF03
:0836DC00F8BC08BC9E467047D3
:1036E40000316253C4F5A697B988DBEA7D4C1F2EDE
:1036F4004372211087B6E5D4FACB98A93E0F5C6DCE
:1037040086B7E4D5427320113F0E5D6CFBCA99A8BD
:10371400C5F4A796013063527C4D1E2FB889DAEBAD
:103724003D0C5F6EF9C89BAA84B5E6D7407122139D
:103734007E4F1C2DBA8BD8E9C7F6A594033261508D
:10374400BB8AD9E87F4E1D2C02336051C6F7A4957D
:10375400F8C99AAB3C0D5E6F4170231285B4E7D66D
:103764007A4B1829BE8FDCEDC3F2A190073665545D
:1037740039085B6AFDCC9FAE80B1E2D3447526174D
:10378400FCCD9EAF38095A6B4574271681B0E3D23D
:10379400BF8EDDEC7B4A192806376455C2F3A0912D
:1037A4004776251483B2E1D0FECF9CAD3A0B58691D
:1037B40004356657C0F1A293BD8CDFEE79481B2A0D
:1037C400C1F0A3920534675678491A2BBC8DDEEFFD
:1037D40082B3E0D1467724153B0A5968FFCE9DACED
:1037E4000002010253544D6963726F656C65637422
:1037F400726F6E696373000053544D3332205669FF
:10380400727475616C20436F6D506F7274000000A8
:1038140043444320436F6E6669670000434443207A
:0C382400496E7465726661636500000007
:043830007501000816
:043834004D0100083A
:10383800F51000080111000885110008A111000801
:103848003D110008BD110008D9110008120100023D
:1038580002020040830440570002010203010000F5
:10386800040309041A03000000000000000000001F
:103878000000000000000000000000000000000040
:103888001D120008F5110008F9110008FD110008C3
:1038980001000000100000000024F40005330008B7
:1038A800C1320008FD310008000000001D31000889
:1038B800B93100088931000800000000000000004C
:1038C800000000005931000849310008693100083A
:1038D8007931000809024300020100C032090400DE
:1038E8000001020201000524001001052401000165
:1038F80004240202052406000107058203080010BB
:1039080009040100020A0000000705010240000046
:10391800070581024000000009024300020100C0BF
:10392800320904000001020201000524001001050B
:10393800240100010424020205240600010705826F
:103948000308001009040100020A0000000705012D
:103958000200020007058102000200000A060002B8
:10396800000000400100000009074300020104C0F4
:1039780032090400000102020100052400100105BB
:10398800240100010424020205240600010705821F
:103998000308001009040100020A000000070501DD
:0C39A80002400000070581024000000002
:040000050800368138
:00000001FF
